{
  "_format": "hh-sol-artifact-1",
  "contractName": "NFT_Mint",
  "sourceName": "contracts/NFT_Mint.sol",
  "abi": [
    {
      "inputs": [
        {
          "internalType": "string",
          "name": "baseURI",
          "type": "string"
        },
        {
          "internalType": "string",
          "name": "Extension",
          "type": "string"
        }
      ],
      "stateMutability": "nonpayable",
      "type": "constructor"
    },
    {
      "inputs": [],
      "name": "ApprovalCallerNotOwnerNorApproved",
      "type": "error"
    },
    {
      "inputs": [],
      "name": "ApprovalQueryForNonexistentToken",
      "type": "error"
    },
    {
      "inputs": [],
      "name": "ApprovalToCurrentOwner",
      "type": "error"
    },
    {
      "inputs": [],
      "name": "ApproveToCaller",
      "type": "error"
    },
    {
      "inputs": [],
      "name": "BalanceQueryForZeroAddress",
      "type": "error"
    },
    {
      "inputs": [],
      "name": "MintToZeroAddress",
      "type": "error"
    },
    {
      "inputs": [],
      "name": "MintZeroQuantity",
      "type": "error"
    },
    {
      "inputs": [],
      "name": "OwnerQueryForNonexistentToken",
      "type": "error"
    },
    {
      "inputs": [],
      "name": "TransferCallerNotOwnerNorApproved",
      "type": "error"
    },
    {
      "inputs": [],
      "name": "TransferFromIncorrectOwner",
      "type": "error"
    },
    {
      "inputs": [],
      "name": "TransferToNonERC721ReceiverImplementer",
      "type": "error"
    },
    {
      "inputs": [],
      "name": "TransferToZeroAddress",
      "type": "error"
    },
    {
      "anonymous": false,
      "inputs": [
        {
          "indexed": true,
          "internalType": "address",
          "name": "owner",
          "type": "address"
        },
        {
          "indexed": true,
          "internalType": "address",
          "name": "approved",
          "type": "address"
        },
        {
          "indexed": true,
          "internalType": "uint256",
          "name": "tokenId",
          "type": "uint256"
        }
      ],
      "name": "Approval",
      "type": "event"
    },
    {
      "anonymous": false,
      "inputs": [
        {
          "indexed": true,
          "internalType": "address",
          "name": "owner",
          "type": "address"
        },
        {
          "indexed": true,
          "internalType": "address",
          "name": "operator",
          "type": "address"
        },
        {
          "indexed": false,
          "internalType": "bool",
          "name": "approved",
          "type": "bool"
        }
      ],
      "name": "ApprovalForAll",
      "type": "event"
    },
    {
      "anonymous": false,
      "inputs": [
        {
          "indexed": true,
          "internalType": "address",
          "name": "previousOwner",
          "type": "address"
        },
        {
          "indexed": true,
          "internalType": "address",
          "name": "newOwner",
          "type": "address"
        }
      ],
      "name": "OwnershipTransferred",
      "type": "event"
    },
    {
      "anonymous": false,
      "inputs": [
        {
          "indexed": true,
          "internalType": "address",
          "name": "from",
          "type": "address"
        },
        {
          "indexed": true,
          "internalType": "address",
          "name": "to",
          "type": "address"
        },
        {
          "indexed": true,
          "internalType": "uint256",
          "name": "tokenId",
          "type": "uint256"
        }
      ],
      "name": "Transfer",
      "type": "event"
    },
    {
      "inputs": [],
      "name": "URIExtension",
      "outputs": [
        {
          "internalType": "string",
          "name": "",
          "type": "string"
        }
      ],
      "stateMutability": "view",
      "type": "function"
    },
    {
      "inputs": [
        {
          "internalType": "address",
          "name": "_address",
          "type": "address"
        },
        {
          "internalType": "uint256",
          "name": "_amount",
          "type": "uint256"
        }
      ],
      "name": "_widthdraw",
      "outputs": [],
      "stateMutability": "nonpayable",
      "type": "function"
    },
    {
      "inputs": [
        {
          "internalType": "address",
          "name": "to",
          "type": "address"
        },
        {
          "internalType": "uint256",
          "name": "tokenId",
          "type": "uint256"
        }
      ],
      "name": "approve",
      "outputs": [],
      "stateMutability": "nonpayable",
      "type": "function"
    },
    {
      "inputs": [
        {
          "internalType": "address",
          "name": "owner",
          "type": "address"
        }
      ],
      "name": "balanceOf",
      "outputs": [
        {
          "internalType": "uint256",
          "name": "",
          "type": "uint256"
        }
      ],
      "stateMutability": "view",
      "type": "function"
    },
    {
      "inputs": [
        {
          "internalType": "uint256",
          "name": "tokenId",
          "type": "uint256"
        }
      ],
      "name": "getApproved",
      "outputs": [
        {
          "internalType": "address",
          "name": "",
          "type": "address"
        }
      ],
      "stateMutability": "view",
      "type": "function"
    },
    {
      "inputs": [
        {
          "internalType": "address",
          "name": "owner",
          "type": "address"
        },
        {
          "internalType": "address",
          "name": "operator",
          "type": "address"
        }
      ],
      "name": "isApprovedForAll",
      "outputs": [
        {
          "internalType": "bool",
          "name": "",
          "type": "bool"
        }
      ],
      "stateMutability": "view",
      "type": "function"
    },
    {
      "inputs": [],
      "name": "max_per_mint",
      "outputs": [
        {
          "internalType": "uint256",
          "name": "",
          "type": "uint256"
        }
      ],
      "stateMutability": "view",
      "type": "function"
    },
    {
      "inputs": [],
      "name": "max_supply",
      "outputs": [
        {
          "internalType": "uint256",
          "name": "",
          "type": "uint256"
        }
      ],
      "stateMutability": "view",
      "type": "function"
    },
    {
      "inputs": [
        {
          "internalType": "uint256",
          "name": "amount",
          "type": "uint256"
        }
      ],
      "name": "mint",
      "outputs": [],
      "stateMutability": "payable",
      "type": "function"
    },
    {
      "inputs": [],
      "name": "name",
      "outputs": [
        {
          "internalType": "string",
          "name": "",
          "type": "string"
        }
      ],
      "stateMutability": "view",
      "type": "function"
    },
    {
      "inputs": [],
      "name": "owner",
      "outputs": [
        {
          "internalType": "address",
          "name": "",
          "type": "address"
        }
      ],
      "stateMutability": "view",
      "type": "function"
    },
    {
      "inputs": [
        {
          "internalType": "address",
          "name": "to",
          "type": "address"
        },
        {
          "internalType": "uint256",
          "name": "tokens",
          "type": "uint256"
        }
      ],
      "name": "ownerMint",
      "outputs": [],
      "stateMutability": "nonpayable",
      "type": "function"
    },
    {
      "inputs": [
        {
          "internalType": "uint256",
          "name": "tokenId",
          "type": "uint256"
        }
      ],
      "name": "ownerOf",
      "outputs": [
        {
          "internalType": "address",
          "name": "",
          "type": "address"
        }
      ],
      "stateMutability": "view",
      "type": "function"
    },
    {
      "inputs": [],
      "name": "price",
      "outputs": [
        {
          "internalType": "uint256",
          "name": "",
          "type": "uint256"
        }
      ],
      "stateMutability": "view",
      "type": "function"
    },
    {
      "inputs": [],
      "name": "renounceOwnership",
      "outputs": [],
      "stateMutability": "nonpayable",
      "type": "function"
    },
    {
      "inputs": [],
      "name": "reveal",
      "outputs": [],
      "stateMutability": "nonpayable",
      "type": "function"
    },
    {
      "inputs": [],
      "name": "revealed",
      "outputs": [
        {
          "internalType": "bool",
          "name": "",
          "type": "bool"
        }
      ],
      "stateMutability": "view",
      "type": "function"
    },
    {
      "inputs": [
        {
          "internalType": "address",
          "name": "from",
          "type": "address"
        },
        {
          "internalType": "address",
          "name": "to",
          "type": "address"
        },
        {
          "internalType": "uint256",
          "name": "tokenId",
          "type": "uint256"
        }
      ],
      "name": "safeTransferFrom",
      "outputs": [],
      "stateMutability": "nonpayable",
      "type": "function"
    },
    {
      "inputs": [
        {
          "internalType": "address",
          "name": "from",
          "type": "address"
        },
        {
          "internalType": "address",
          "name": "to",
          "type": "address"
        },
        {
          "internalType": "uint256",
          "name": "tokenId",
          "type": "uint256"
        },
        {
          "internalType": "bytes",
          "name": "_data",
          "type": "bytes"
        }
      ],
      "name": "safeTransferFrom",
      "outputs": [],
      "stateMutability": "nonpayable",
      "type": "function"
    },
    {
      "inputs": [],
      "name": "sale_started",
      "outputs": [
        {
          "internalType": "bool",
          "name": "",
          "type": "bool"
        }
      ],
      "stateMutability": "view",
      "type": "function"
    },
    {
      "inputs": [
        {
          "internalType": "address",
          "name": "operator",
          "type": "address"
        },
        {
          "internalType": "bool",
          "name": "approved",
          "type": "bool"
        }
      ],
      "name": "setApprovalForAll",
      "outputs": [],
      "stateMutability": "nonpayable",
      "type": "function"
    },
    {
      "inputs": [
        {
          "internalType": "string",
          "name": "_newBaseURI",
          "type": "string"
        }
      ],
      "name": "setBaseURI",
      "outputs": [],
      "stateMutability": "nonpayable",
      "type": "function"
    },
    {
      "inputs": [
        {
          "internalType": "bytes4",
          "name": "interfaceId",
          "type": "bytes4"
        }
      ],
      "name": "supportsInterface",
      "outputs": [
        {
          "internalType": "bool",
          "name": "",
          "type": "bool"
        }
      ],
      "stateMutability": "view",
      "type": "function"
    },
    {
      "inputs": [],
      "name": "symbol",
      "outputs": [
        {
          "internalType": "string",
          "name": "",
          "type": "string"
        }
      ],
      "stateMutability": "view",
      "type": "function"
    },
    {
      "inputs": [],
      "name": "togglePublicSaleStarted",
      "outputs": [],
      "stateMutability": "nonpayable",
      "type": "function"
    },
    {
      "inputs": [
        {
          "internalType": "uint256",
          "name": "_tokenId",
          "type": "uint256"
        }
      ],
      "name": "tokenURI",
      "outputs": [
        {
          "internalType": "string",
          "name": "",
          "type": "string"
        }
      ],
      "stateMutability": "view",
      "type": "function"
    },
    {
      "inputs": [],
      "name": "tokenURIBase",
      "outputs": [
        {
          "internalType": "string",
          "name": "",
          "type": "string"
        }
      ],
      "stateMutability": "view",
      "type": "function"
    },
    {
      "inputs": [],
      "name": "totalSupply",
      "outputs": [
        {
          "internalType": "uint256",
          "name": "",
          "type": "uint256"
        }
      ],
      "stateMutability": "view",
      "type": "function"
    },
    {
      "inputs": [
        {
          "internalType": "address",
          "name": "from",
          "type": "address"
        },
        {
          "internalType": "address",
          "name": "to",
          "type": "address"
        },
        {
          "internalType": "uint256",
          "name": "tokenId",
          "type": "uint256"
        }
      ],
      "name": "transferFrom",
      "outputs": [],
      "stateMutability": "nonpayable",
      "type": "function"
    },
    {
      "inputs": [
        {
          "internalType": "address",
          "name": "newOwner",
          "type": "address"
        }
      ],
      "name": "transferOwnership",
      "outputs": [],
      "stateMutability": "nonpayable",
      "type": "function"
    }
  ],
  "bytecode": "0x608060405260006009556000600a60006101000a81548160ff0219169083151502179055506000600a60016101000a81548160ff0219169083151502179055503480156200004c57600080fd5b5060405162003c9938038062003c998339818101604052810190620000729190620004a6565b6040518060400160405280600881526020017f4e46545f4d696e740000000000000000000000000000000000000000000000008152506040518060400160405280600481526020017f4d494e54000000000000000000000000000000000000000000000000000000008152508160029080519060200190620000f692919062000259565b5080600390805190602001906200010f92919062000259565b50620001206200018260201b60201c565b6000819055505050620001486200013c6200018b60201b60201c565b6200019360201b60201c565b81600b90805190602001906200016092919062000259565b5080600c90805190602001906200017992919062000259565b50505062000590565b60006001905090565b600033905090565b6000600860009054906101000a900473ffffffffffffffffffffffffffffffffffffffff16905081600860006101000a81548173ffffffffffffffffffffffffffffffffffffffff021916908373ffffffffffffffffffffffffffffffffffffffff1602179055508173ffffffffffffffffffffffffffffffffffffffff168173ffffffffffffffffffffffffffffffffffffffff167f8be0079c531659141344cd1fd0a4f28419497f9722a3daafe3b4186f6b6457e060405160405180910390a35050565b82805462000267906200055a565b90600052602060002090601f0160209004810192826200028b5760008555620002d7565b82601f10620002a657805160ff1916838001178555620002d7565b82800160010185558215620002d7579182015b82811115620002d6578251825591602001919060010190620002b9565b5b509050620002e69190620002ea565b5090565b5b8082111562000305576000816000905550600101620002eb565b5090565b6000604051905090565b600080fd5b600080fd5b600080fd5b600080fd5b6000601f19601f8301169050919050565b7f4e487b7100000000000000000000000000000000000000000000000000000000600052604160045260246000fd5b620003728262000327565b810181811067ffffffffffffffff8211171562000394576200039362000338565b5b80604052505050565b6000620003a962000309565b9050620003b7828262000367565b919050565b600067ffffffffffffffff821115620003da57620003d962000338565b5b620003e58262000327565b9050602081019050919050565b60005b8381101562000412578082015181840152602081019050620003f5565b8381111562000422576000848401525b50505050565b60006200043f6200043984620003bc565b6200039d565b9050828152602081018484840111156200045e576200045d62000322565b5b6200046b848285620003f2565b509392505050565b600082601f8301126200048b576200048a6200031d565b5b81516200049d84826020860162000428565b91505092915050565b60008060408385031215620004c057620004bf62000313565b5b600083015167ffffffffffffffff811115620004e157620004e062000318565b5b620004ef8582860162000473565b925050602083015167ffffffffffffffff81111562000513576200051262000318565b5b620005218582860162000473565b9150509250929050565b7f4e487b7100000000000000000000000000000000000000000000000000000000600052602260045260246000fd5b600060028204905060018216806200057357607f821691505b602082108114156200058a57620005896200052b565b5b50919050565b6136f980620005a06000396000f3fe6080604052600436106101cd5760003560e01c80636352211e116100f7578063a0712d6811610095578063b88d4fde11610064578063b88d4fde1461061f578063c87b56dd14610648578063e985e9c514610685578063f2fde38b146106c2576101cd565b8063a0712d681461059a578063a22cb465146105b6578063a475b5dd146105df578063b4e380d5146105f6576101cd565b80638a333b50116100d15780638a333b50146104ee5780638da5cb5b1461051957806395d89b4114610544578063a035b1fe1461056f576101cd565b80636352211e1461045d57806370a082311461049a578063715018a6146104d7576101cd565b80632f8145751161016f578063518302271161013e57806351830227146103b357806355f804b3146103de5780635abc9622146104075780635cfbd28b14610432576101cd565b80632f8145751461031f57806342842e0e14610336578063484b973c1461035f5780634c8403a114610388576101cd565b8063095ea7b3116101ab578063095ea7b31461027757806318160ddd146102a057806323b872dd146102cb578063261220a3146102f4576101cd565b806301ffc9a7146101d257806306fdde031461020f578063081812fc1461023a575b600080fd5b3480156101de57600080fd5b506101f960048036038101906101f49190612679565b6106eb565b60405161020691906126c1565b60405180910390f35b34801561021b57600080fd5b506102246107cd565b6040516102319190612775565b60405180910390f35b34801561024657600080fd5b50610261600480360381019061025c91906127cd565b61085f565b60405161026e919061283b565b60405180910390f35b34801561028357600080fd5b5061029e60048036038101906102999190612882565b6108db565b005b3480156102ac57600080fd5b506102b56109e6565b6040516102c291906128d1565b60405180910390f35b3480156102d757600080fd5b506102f260048036038101906102ed91906128ec565b6109fd565b005b34801561030057600080fd5b50610309610a0d565b6040516103169190612775565b60405180910390f35b34801561032b57600080fd5b50610334610a9b565b005b34801561034257600080fd5b5061035d600480360381019061035891906128ec565b610acf565b005b34801561036b57600080fd5b5061038660048036038101906103819190612882565b610aef565b005b34801561039457600080fd5b5061039d610b9f565b6040516103aa91906128d1565b60405180910390f35b3480156103bf57600080fd5b506103c8610ba4565b6040516103d591906126c1565b60405180910390f35b3480156103ea57600080fd5b5061040560048036038101906104009190612a74565b610bb7565b005b34801561041357600080fd5b5061041c610bd9565b60405161042991906126c1565b60405180910390f35b34801561043e57600080fd5b50610447610bec565b6040516104549190612775565b60405180910390f35b34801561046957600080fd5b50610484600480360381019061047f91906127cd565b610c7a565b604051610491919061283b565b60405180910390f35b3480156104a657600080fd5b506104c160048036038101906104bc9190612abd565b610c90565b6040516104ce91906128d1565b60405180910390f35b3480156104e357600080fd5b506104ec610d60565b005b3480156104fa57600080fd5b50610503610d74565b60405161051091906128d1565b60405180910390f35b34801561052557600080fd5b5061052e610d7a565b60405161053b919061283b565b60405180910390f35b34801561055057600080fd5b50610559610da4565b6040516105669190612775565b60405180910390f35b34801561057b57600080fd5b50610584610e36565b60405161059191906128d1565b60405180910390f35b6105b460048036038101906105af91906127cd565b610e3c565b005b3480156105c257600080fd5b506105dd60048036038101906105d89190612b16565b610fcc565b005b3480156105eb57600080fd5b506105f4611144565b005b34801561060257600080fd5b5061061d60048036038101906106189190612882565b611178565b005b34801561062b57600080fd5b5061064660048036038101906106419190612bf7565b611231565b005b34801561065457600080fd5b5061066f600480360381019061066a91906127cd565b6112ad565b60405161067c9190612775565b60405180910390f35b34801561069157600080fd5b506106ac60048036038101906106a79190612c7a565b61132c565b6040516106b991906126c1565b60405180910390f35b3480156106ce57600080fd5b506106e960048036038101906106e49190612abd565b6113c0565b005b60007f80ac58cd000000000000000000000000000000000000000000000000000000007bffffffffffffffffffffffffffffffffffffffffffffffffffffffff1916827bffffffffffffffffffffffffffffffffffffffffffffffffffffffff191614806107b657507f5b5e139f000000000000000000000000000000000000000000000000000000007bffffffffffffffffffffffffffffffffffffffffffffffffffffffff1916827bffffffffffffffffffffffffffffffffffffffffffffffffffffffff1916145b806107c657506107c582611444565b5b9050919050565b6060600280546107dc90612ce9565b80601f016020809104026020016040519081016040528092919081815260200182805461080890612ce9565b80156108555780601f1061082a57610100808354040283529160200191610855565b820191906000526020600020905b81548152906001019060200180831161083857829003601f168201915b5050505050905090565b600061086a826114ae565b6108a0576040517fcf4700e400000000000000000000000000000000000000000000000000000000815260040160405180910390fd5b6006600083815260200190815260200160002060009054906101000a900473ffffffffffffffffffffffffffffffffffffffff169050919050565b60006108e682610c7a565b90508073ffffffffffffffffffffffffffffffffffffffff168373ffffffffffffffffffffffffffffffffffffffff16141561094e576040517f943f7b8c00000000000000000000000000000000000000000000000000000000815260040160405180910390fd5b8073ffffffffffffffffffffffffffffffffffffffff1661096d6114fc565b73ffffffffffffffffffffffffffffffffffffffff161415801561099f575061099d816109986114fc565b61132c565b155b156109d6576040517fcfb3b94200000000000000000000000000000000000000000000000000000000815260040160405180910390fd5b6109e1838383611504565b505050565b60006109f06115b6565b6001546000540303905090565b610a088383836115bf565b505050565b600b8054610a1a90612ce9565b80601f0160208091040260200160405190810160405280929190818152602001828054610a4690612ce9565b8015610a935780601f10610a6857610100808354040283529160200191610a93565b820191906000526020600020905b815481529060010190602001808311610a7657829003601f168201915b505050505081565b610aa3611a75565b600a60019054906101000a900460ff1615600a60016101000a81548160ff021916908315150217905550565b610aea83838360405180602001604052806000815250611231565b505050565b610af7611a75565b61271081610b036109e6565b610b0d9190612d4a565b1115610b4e576040517f08c379a0000000000000000000000000000000000000000000000000000000008152600401610b4590612e12565b60405180910390fd5b60008111610b91576040517f08c379a0000000000000000000000000000000000000000000000000000000008152600401610b8890612ea4565b60405180910390fd5b610b9b8282611af3565b5050565b600a81565b600a60009054906101000a900460ff1681565b610bbf611a75565b80600b9080519060200190610bd5929190612527565b5050565b600a60019054906101000a900460ff1681565b600c8054610bf990612ce9565b80601f0160208091040260200160405190810160405280929190818152602001828054610c2590612ce9565b8015610c725780601f10610c4757610100808354040283529160200191610c72565b820191906000526020600020905b815481529060010190602001808311610c5557829003601f168201915b505050505081565b6000610c8582611b11565b600001519050919050565b60008073ffffffffffffffffffffffffffffffffffffffff168273ffffffffffffffffffffffffffffffffffffffff161415610cf8576040517f8f4eb60400000000000000000000000000000000000000000000000000000000815260040160405180910390fd5b600560008373ffffffffffffffffffffffffffffffffffffffff1673ffffffffffffffffffffffffffffffffffffffff16815260200190815260200160002060000160009054906101000a900467ffffffffffffffff1667ffffffffffffffff169050919050565b610d68611a75565b610d726000611da0565b565b61271081565b6000600860009054906101000a900473ffffffffffffffffffffffffffffffffffffffff16905090565b606060038054610db390612ce9565b80601f0160208091040260200160405190810160405280929190818152602001828054610ddf90612ce9565b8015610e2c5780601f10610e0157610100808354040283529160200191610e2c565b820191906000526020600020905b815481529060010190602001808311610e0f57829003601f168201915b5050505050905090565b60095481565b3481600954610e4b9190612ec4565b14610e8b576040517f08c379a0000000000000000000000000000000000000000000000000000000008152600401610e8290612f6a565b60405180910390fd5b600a60019054906101000a900460ff16610eda576040517f08c379a0000000000000000000000000000000000000000000000000000000008152600401610ed190612fd6565b60405180910390fd5b600a811115610f1e576040517f08c379a0000000000000000000000000000000000000000000000000000000008152600401610f1590613042565b60405180910390fd5b61271081610f2a6109e6565b610f349190612d4a565b1115610f75576040517f08c379a0000000000000000000000000000000000000000000000000000000008152600401610f6c906130ae565b60405180910390fd5b60008111610fb8576040517f08c379a0000000000000000000000000000000000000000000000000000000008152600401610faf90613140565b60405180910390fd5b610fc9610fc36114fc565b82611af3565b50565b610fd46114fc565b73ffffffffffffffffffffffffffffffffffffffff168273ffffffffffffffffffffffffffffffffffffffff161415611039576040517fb06307db00000000000000000000000000000000000000000000000000000000815260040160405180910390fd5b80600760006110466114fc565b73ffffffffffffffffffffffffffffffffffffffff1673ffffffffffffffffffffffffffffffffffffffff16815260200190815260200160002060008473ffffffffffffffffffffffffffffffffffffffff1673ffffffffffffffffffffffffffffffffffffffff16815260200190815260200160002060006101000a81548160ff0219169083151502179055508173ffffffffffffffffffffffffffffffffffffffff166110f36114fc565b73ffffffffffffffffffffffffffffffffffffffff167f17307eab39ab6107e8899845ad3d59bd9653f200f220920489ca2b5937696c318360405161113891906126c1565b60405180910390a35050565b61114c611a75565b600a60009054906101000a900460ff1615600a60006101000a81548160ff021916908315150217905550565b611180611a75565b60008273ffffffffffffffffffffffffffffffffffffffff16826040516111a690613191565b60006040518083038185875af1925050503d80600081146111e3576040519150601f19603f3d011682016040523d82523d6000602084013e6111e8565b606091505b505090508061122c576040517f08c379a0000000000000000000000000000000000000000000000000000000008152600401611223906131f2565b60405180910390fd5b505050565b61123c8484846115bf565b61125b8373ffffffffffffffffffffffffffffffffffffffff16611e66565b8015611270575061126e84848484611e89565b155b156112a7576040517fd1a57ed600000000000000000000000000000000000000000000000000000000815260040160405180910390fd5b50505050565b60606112b8826114ae565b6112f7576040517f08c379a00000000000000000000000000000000000000000000000000000000081526004016112ee90613284565b60405180910390fd5b600b61130283611fda565b600c60405160200161131693929190613374565b6040516020818303038152906040529050919050565b6000600760008473ffffffffffffffffffffffffffffffffffffffff1673ffffffffffffffffffffffffffffffffffffffff16815260200190815260200160002060008373ffffffffffffffffffffffffffffffffffffffff1673ffffffffffffffffffffffffffffffffffffffff16815260200190815260200160002060009054906101000a900460ff16905092915050565b6113c8611a75565b600073ffffffffffffffffffffffffffffffffffffffff168173ffffffffffffffffffffffffffffffffffffffff161415611438576040517f08c379a000000000000000000000000000000000000000000000000000000000815260040161142f90613417565b60405180910390fd5b61144181611da0565b50565b60007f01ffc9a7000000000000000000000000000000000000000000000000000000007bffffffffffffffffffffffffffffffffffffffffffffffffffffffff1916827bffffffffffffffffffffffffffffffffffffffffffffffffffffffff1916149050919050565b6000816114b96115b6565b111580156114c8575060005482105b80156114f5575060046000838152602001908152602001600020600001601c9054906101000a900460ff16155b9050919050565b600033905090565b826006600084815260200190815260200160002060006101000a81548173ffffffffffffffffffffffffffffffffffffffff021916908373ffffffffffffffffffffffffffffffffffffffff160217905550818373ffffffffffffffffffffffffffffffffffffffff168273ffffffffffffffffffffffffffffffffffffffff167f8c5be1e5ebec7d5bd14f71427d1e84f3dd0314c0f7b2291e5b200ac8c7c3b92560405160405180910390a4505050565b60006001905090565b60006115ca82611b11565b90508373ffffffffffffffffffffffffffffffffffffffff16816000015173ffffffffffffffffffffffffffffffffffffffff1614611635576040517fa114810000000000000000000000000000000000000000000000000000000000815260040160405180910390fd5b60008473ffffffffffffffffffffffffffffffffffffffff166116566114fc565b73ffffffffffffffffffffffffffffffffffffffff16148061168557506116848561167f6114fc565b61132c565b5b806116ca57506116936114fc565b73ffffffffffffffffffffffffffffffffffffffff166116b28461085f565b73ffffffffffffffffffffffffffffffffffffffff16145b905080611703576040517f59c896be00000000000000000000000000000000000000000000000000000000815260040160405180910390fd5b600073ffffffffffffffffffffffffffffffffffffffff168473ffffffffffffffffffffffffffffffffffffffff16141561176a576040517fea553b3400000000000000000000000000000000000000000000000000000000815260040160405180910390fd5b611777858585600161213b565b61178360008487611504565b6001600560008773ffffffffffffffffffffffffffffffffffffffff1673ffffffffffffffffffffffffffffffffffffffff16815260200190815260200160002060000160008282829054906101000a900467ffffffffffffffff160392506101000a81548167ffffffffffffffff021916908367ffffffffffffffff1602179055506001600560008673ffffffffffffffffffffffffffffffffffffffff1673ffffffffffffffffffffffffffffffffffffffff16815260200190815260200160002060000160008282829054906101000a900467ffffffffffffffff160192506101000a81548167ffffffffffffffff021916908367ffffffffffffffff1602179055506000600460008581526020019081526020016000209050848160000160006101000a81548173ffffffffffffffffffffffffffffffffffffffff021916908373ffffffffffffffffffffffffffffffffffffffff160217905550428160000160146101000a81548167ffffffffffffffff021916908367ffffffffffffffff16021790555060006001850190506000600460008381526020019081526020016000209050600073ffffffffffffffffffffffffffffffffffffffff168160000160009054906101000a900473ffffffffffffffffffffffffffffffffffffffff1673ffffffffffffffffffffffffffffffffffffffff161415611a03576000548214611a0257878160000160006101000a81548173ffffffffffffffffffffffffffffffffffffffff021916908373ffffffffffffffffffffffffffffffffffffffff16021790555084602001518160000160146101000a81548167ffffffffffffffff021916908367ffffffffffffffff1602179055505b5b505050828473ffffffffffffffffffffffffffffffffffffffff168673ffffffffffffffffffffffffffffffffffffffff167fddf252ad1be2c89b69c2b068fc378daa952ba7f163c4a11628f55a4df523b3ef60405160405180910390a4611a6e8585856001612141565b5050505050565b611a7d6114fc565b73ffffffffffffffffffffffffffffffffffffffff16611a9b610d7a565b73ffffffffffffffffffffffffffffffffffffffff1614611af1576040517f08c379a0000000000000000000000000000000000000000000000000000000008152600401611ae890613483565b60405180910390fd5b565b611b0d828260405180602001604052806000815250612147565b5050565b611b196125ad565b600082905080611b276115b6565b11158015611b36575060005481105b15611d69576000600460008381526020019081526020016000206040518060600160405290816000820160009054906101000a900473ffffffffffffffffffffffffffffffffffffffff1673ffffffffffffffffffffffffffffffffffffffff1673ffffffffffffffffffffffffffffffffffffffff1681526020016000820160149054906101000a900467ffffffffffffffff1667ffffffffffffffff1667ffffffffffffffff16815260200160008201601c9054906101000a900460ff16151515158152505090508060400151611d6757600073ffffffffffffffffffffffffffffffffffffffff16816000015173ffffffffffffffffffffffffffffffffffffffff1614611c4b578092505050611d9b565b5b600115611d6657818060019003925050600460008381526020019081526020016000206040518060600160405290816000820160009054906101000a900473ffffffffffffffffffffffffffffffffffffffff1673ffffffffffffffffffffffffffffffffffffffff1673ffffffffffffffffffffffffffffffffffffffff1681526020016000820160149054906101000a900467ffffffffffffffff1667ffffffffffffffff1667ffffffffffffffff16815260200160008201601c9054906101000a900460ff1615151515815250509050600073ffffffffffffffffffffffffffffffffffffffff16816000015173ffffffffffffffffffffffffffffffffffffffff1614611d61578092505050611d9b565b611c4c565b5b505b6040517fdf2d9b4200000000000000000000000000000000000000000000000000000000815260040160405180910390fd5b919050565b6000600860009054906101000a900473ffffffffffffffffffffffffffffffffffffffff16905081600860006101000a81548173ffffffffffffffffffffffffffffffffffffffff021916908373ffffffffffffffffffffffffffffffffffffffff1602179055508173ffffffffffffffffffffffffffffffffffffffff168173ffffffffffffffffffffffffffffffffffffffff167f8be0079c531659141344cd1fd0a4f28419497f9722a3daafe3b4186f6b6457e060405160405180910390a35050565b6000808273ffffffffffffffffffffffffffffffffffffffff163b119050919050565b60008373ffffffffffffffffffffffffffffffffffffffff1663150b7a02611eaf6114fc565b8786866040518563ffffffff1660e01b8152600401611ed194939291906134f8565b6020604051808303816000875af1925050508015611f0d57506040513d601f19601f82011682018060405250810190611f0a9190613559565b60015b611f87573d8060008114611f3d576040519150601f19603f3d011682016040523d82523d6000602084013e611f42565b606091505b50600081511415611f7f576040517fd1a57ed600000000000000000000000000000000000000000000000000000000815260040160405180910390fd5b805181602001fd5b63150b7a0260e01b7bffffffffffffffffffffffffffffffffffffffffffffffffffffffff1916817bffffffffffffffffffffffffffffffffffffffffffffffffffffffff191614915050949350505050565b60606000821415612022576040518060400160405280600181526020017f30000000000000000000000000000000000000000000000000000000000000008152509050612136565b600082905060005b6000821461205457808061203d90613586565b915050600a8261204d91906135fe565b915061202a565b60008167ffffffffffffffff8111156120705761206f612949565b5b6040519080825280601f01601f1916602001820160405280156120a25781602001600182028036833780820191505090505b5090505b6000851461212f576001826120bb919061362f565b9150600a856120ca9190613663565b60306120d69190612d4a565b60f81b8183815181106120ec576120eb613694565b5b60200101907effffffffffffffffffffffffffffffffffffffffffffffffffffffffffffff1916908160001a905350600a8561212891906135fe565b94506120a6565b8093505050505b919050565b50505050565b50505050565b6121548383836001612159565b505050565b600080549050600073ffffffffffffffffffffffffffffffffffffffff168573ffffffffffffffffffffffffffffffffffffffff1614156121c6576040517f2e07630000000000000000000000000000000000000000000000000000000000815260040160405180910390fd5b6000841415612201576040517fb562e8dd00000000000000000000000000000000000000000000000000000000815260040160405180910390fd5b61220e600086838761213b565b83600560008773ffffffffffffffffffffffffffffffffffffffff1673ffffffffffffffffffffffffffffffffffffffff16815260200190815260200160002060000160008282829054906101000a900467ffffffffffffffff160192506101000a81548167ffffffffffffffff021916908367ffffffffffffffff16021790555083600560008773ffffffffffffffffffffffffffffffffffffffff1673ffffffffffffffffffffffffffffffffffffffff16815260200190815260200160002060000160088282829054906101000a900467ffffffffffffffff160192506101000a81548167ffffffffffffffff021916908367ffffffffffffffff160217905550846004600083815260200190815260200160002060000160006101000a81548173ffffffffffffffffffffffffffffffffffffffff021916908373ffffffffffffffffffffffffffffffffffffffff160217905550426004600083815260200190815260200160002060000160146101000a81548167ffffffffffffffff021916908367ffffffffffffffff1602179055506000819050600085820190508380156123d857506123d78773ffffffffffffffffffffffffffffffffffffffff16611e66565b5b1561249e575b818773ffffffffffffffffffffffffffffffffffffffff16600073ffffffffffffffffffffffffffffffffffffffff167fddf252ad1be2c89b69c2b068fc378daa952ba7f163c4a11628f55a4df523b3ef60405160405180910390a461244d6000888480600101955088611e89565b612483576040517fd1a57ed600000000000000000000000000000000000000000000000000000000815260040160405180910390fd5b808214156123de57826000541461249957600080fd5b61250a565b5b818060010192508773ffffffffffffffffffffffffffffffffffffffff16600073ffffffffffffffffffffffffffffffffffffffff167fddf252ad1be2c89b69c2b068fc378daa952ba7f163c4a11628f55a4df523b3ef60405160405180910390a48082141561249f575b8160008190555050506125206000868387612141565b5050505050565b82805461253390612ce9565b90600052602060002090601f016020900481019282612555576000855561259c565b82601f1061256e57805160ff191683800117855561259c565b8280016001018555821561259c579182015b8281111561259b578251825591602001919060010190612580565b5b5090506125a991906125f0565b5090565b6040518060600160405280600073ffffffffffffffffffffffffffffffffffffffff168152602001600067ffffffffffffffff1681526020016000151581525090565b5b808211156126095760008160009055506001016125f1565b5090565b6000604051905090565b600080fd5b600080fd5b60007fffffffff0000000000000000000000000000000000000000000000000000000082169050919050565b61265681612621565b811461266157600080fd5b50565b6000813590506126738161264d565b92915050565b60006020828403121561268f5761268e612617565b5b600061269d84828501612664565b91505092915050565b60008115159050919050565b6126bb816126a6565b82525050565b60006020820190506126d660008301846126b2565b92915050565b600081519050919050565b600082825260208201905092915050565b60005b838110156127165780820151818401526020810190506126fb565b83811115612725576000848401525b50505050565b6000601f19601f8301169050919050565b6000612747826126dc565b61275181856126e7565b93506127618185602086016126f8565b61276a8161272b565b840191505092915050565b6000602082019050818103600083015261278f818461273c565b905092915050565b6000819050919050565b6127aa81612797565b81146127b557600080fd5b50565b6000813590506127c7816127a1565b92915050565b6000602082840312156127e3576127e2612617565b5b60006127f1848285016127b8565b91505092915050565b600073ffffffffffffffffffffffffffffffffffffffff82169050919050565b6000612825826127fa565b9050919050565b6128358161281a565b82525050565b6000602082019050612850600083018461282c565b92915050565b61285f8161281a565b811461286a57600080fd5b50565b60008135905061287c81612856565b92915050565b6000806040838503121561289957612898612617565b5b60006128a78582860161286d565b92505060206128b8858286016127b8565b9150509250929050565b6128cb81612797565b82525050565b60006020820190506128e660008301846128c2565b92915050565b60008060006060848603121561290557612904612617565b5b60006129138682870161286d565b93505060206129248682870161286d565b9250506040612935868287016127b8565b9150509250925092565b600080fd5b600080fd5b7f4e487b7100000000000000000000000000000000000000000000000000000000600052604160045260246000fd5b6129818261272b565b810181811067ffffffffffffffff821117156129a05761299f612949565b5b80604052505050565b60006129b361260d565b90506129bf8282612978565b919050565b600067ffffffffffffffff8211156129df576129de612949565b5b6129e88261272b565b9050602081019050919050565b82818337600083830152505050565b6000612a17612a12846129c4565b6129a9565b905082815260208101848484011115612a3357612a32612944565b5b612a3e8482856129f5565b509392505050565b600082601f830112612a5b57612a5a61293f565b5b8135612a6b848260208601612a04565b91505092915050565b600060208284031215612a8a57612a89612617565b5b600082013567ffffffffffffffff811115612aa857612aa761261c565b5b612ab484828501612a46565b91505092915050565b600060208284031215612ad357612ad2612617565b5b6000612ae18482850161286d565b91505092915050565b612af3816126a6565b8114612afe57600080fd5b50565b600081359050612b1081612aea565b92915050565b60008060408385031215612b2d57612b2c612617565b5b6000612b3b8582860161286d565b9250506020612b4c85828601612b01565b9150509250929050565b600067ffffffffffffffff821115612b7157612b70612949565b5b612b7a8261272b565b9050602081019050919050565b6000612b9a612b9584612b56565b6129a9565b905082815260208101848484011115612bb657612bb5612944565b5b612bc18482856129f5565b509392505050565b600082601f830112612bde57612bdd61293f565b5b8135612bee848260208601612b87565b91505092915050565b60008060008060808587031215612c1157612c10612617565b5b6000612c1f8782880161286d565b9450506020612c308782880161286d565b9350506040612c41878288016127b8565b925050606085013567ffffffffffffffff811115612c6257612c6161261c565b5b612c6e87828801612bc9565b91505092959194509250565b60008060408385031215612c9157612c90612617565b5b6000612c9f8582860161286d565b9250506020612cb08582860161286d565b9150509250929050565b7f4e487b7100000000000000000000000000000000000000000000000000000000600052602260045260246000fd5b60006002820490506001821680612d0157607f821691505b60208210811415612d1557612d14612cba565b5b50919050565b7f4e487b7100000000000000000000000000000000000000000000000000000000600052601160045260246000fd5b6000612d5582612797565b9150612d6083612797565b9250827fffffffffffffffffffffffffffffffffffffffffffffffffffffffffffffffff03821115612d9557612d94612d1b565b5b828201905092915050565b7f4441534b3a204d696e74696e6720776f756c6420657863656564206d6178207360008201527f7570706c79000000000000000000000000000000000000000000000000000000602082015250565b6000612dfc6025836126e7565b9150612e0782612da0565b604082019050919050565b60006020820190508181036000830152612e2b81612def565b9050919050565b7f4441534b3a204d757374206d696e74206174206c65617374206f6e6520746f6b60008201527f656e000000000000000000000000000000000000000000000000000000000000602082015250565b6000612e8e6022836126e7565b9150612e9982612e32565b604082019050919050565b60006020820190508181036000830152612ebd81612e81565b9050919050565b6000612ecf82612797565b9150612eda83612797565b9250817fffffffffffffffffffffffffffffffffffffffffffffffffffffffffffffffff0483118215151615612f1357612f12612d1b565b5b828202905092915050565b7f496e73756666696369656e742045544820666f72207472616e73616374696f6e600082015250565b6000612f546020836126e7565b9150612f5f82612f1e565b602082019050919050565b60006020820190508181036000830152612f8381612f47565b9050919050565b7f5075626c69632073616c6520686173206e6f7420616374697665000000000000600082015250565b6000612fc0601a836126e7565b9150612fcb82612f8a565b602082019050919050565b60006020820190508181036000830152612fef81612fb3565b9050919050565b7f416d6f756e742065786365656473206c696d6974000000000000000000000000600082015250565b600061302c6014836126e7565b915061303782612ff6565b602082019050919050565b6000602082019050818103600083015261305b8161301f565b9050919050565b7f4f7574206f6620746f6b656e7300000000000000000000000000000000000000600082015250565b6000613098600d836126e7565b91506130a382613062565b602082019050919050565b600060208201905081810360008301526130c78161308b565b9050919050565b7f4174206c65617374206f6e6520746f6b656e2068617320746f206265206d696e60008201527f7465640000000000000000000000000000000000000000000000000000000000602082015250565b600061312a6023836126e7565b9150613135826130ce565b604082019050919050565b600060208201905081810360008301526131598161311d565b9050919050565b600081905092915050565b50565b600061317b600083613160565b91506131868261316b565b600082019050919050565b600061319c8261316e565b9150819050919050565b7f4661696c656420617474656d707420746f2077697468647261772066756e6473600082015250565b60006131dc6020836126e7565b91506131e7826131a6565b602082019050919050565b6000602082019050818103600083015261320b816131cf565b9050919050565b7f4552433732314d657461646174613a2055524920717565727920666f72206e6f60008201527f6e6578697374656e7420746f6b656e0000000000000000000000000000000000602082015250565b600061326e602f836126e7565b915061327982613212565b604082019050919050565b6000602082019050818103600083015261329d81613261565b9050919050565b600081905092915050565b60008190508160005260206000209050919050565b600081546132d181612ce9565b6132db81866132a4565b945060018216600081146132f657600181146133075761333a565b60ff1983168652818601935061333a565b613310856132af565b60005b8381101561333257815481890152600182019150602081019050613313565b838801955050505b50505092915050565b600061334e826126dc565b61335881856132a4565b93506133688185602086016126f8565b80840191505092915050565b600061338082866132c4565b915061338c8285613343565b915061339882846132c4565b9150819050949350505050565b7f4f776e61626c653a206e6577206f776e657220697320746865207a65726f206160008201527f6464726573730000000000000000000000000000000000000000000000000000602082015250565b60006134016026836126e7565b915061340c826133a5565b604082019050919050565b60006020820190508181036000830152613430816133f4565b9050919050565b7f4f776e61626c653a2063616c6c6572206973206e6f7420746865206f776e6572600082015250565b600061346d6020836126e7565b915061347882613437565b602082019050919050565b6000602082019050818103600083015261349c81613460565b9050919050565b600081519050919050565b600082825260208201905092915050565b60006134ca826134a3565b6134d481856134ae565b93506134e48185602086016126f8565b6134ed8161272b565b840191505092915050565b600060808201905061350d600083018761282c565b61351a602083018661282c565b61352760408301856128c2565b818103606083015261353981846134bf565b905095945050505050565b6000815190506135538161264d565b92915050565b60006020828403121561356f5761356e612617565b5b600061357d84828501613544565b91505092915050565b600061359182612797565b91507fffffffffffffffffffffffffffffffffffffffffffffffffffffffffffffffff8214156135c4576135c3612d1b565b5b600182019050919050565b7f4e487b7100000000000000000000000000000000000000000000000000000000600052601260045260246000fd5b600061360982612797565b915061361483612797565b925082613624576136236135cf565b5b828204905092915050565b600061363a82612797565b915061364583612797565b92508282101561365857613657612d1b565b5b828203905092915050565b600061366e82612797565b915061367983612797565b925082613689576136886135cf565b5b828206905092915050565b7f4e487b7100000000000000000000000000000000000000000000000000000000600052603260045260246000fdfea2646970667358221220de5b646db28a028a6537c06102be4656cc6f97fd3b872182f771dbcb48d43ead64736f6c634300080a0033",
  "linkReferences": {},
  "deployedLinkReferences": {}
}